{
  "contractName": "TradeImpl",
  "abi": [
    {
      "anonymous": false,
      "inputs": [
        {
          "indexed": false,
          "name": "_tradeId",
          "type": "bytes32"
        },
        {
          "indexed": false,
          "name": "_fromParty",
          "type": "address"
        },
        {
          "indexed": false,
          "name": "_toParty",
          "type": "address"
        },
        {
          "indexed": false,
          "name": "_amount",
          "type": "uint256"
        },
        {
          "indexed": false,
          "name": "_tradeDate",
          "type": "uint256"
        }
      ],
      "name": "TradeCreated",
      "type": "event"
    },
    {
      "constant": false,
      "inputs": [
        {
          "name": "_tradeId",
          "type": "bytes32"
        },
        {
          "name": "_fromParty",
          "type": "address"
        },
        {
          "name": "_toParty",
          "type": "address"
        },
        {
          "name": "_amount",
          "type": "uint256"
        },
        {
          "name": "_tradeDate",
          "type": "uint256"
        }
      ],
      "name": "addTrade",
      "outputs": [],
      "payable": false,
      "stateMutability": "nonpayable",
      "type": "function"
    },
    {
      "constant": true,
      "inputs": [
        {
          "name": "_tradeId",
          "type": "bytes32"
        }
      ],
      "name": "getTrade",
      "outputs": [
        {
          "name": "",
          "type": "address"
        },
        {
          "name": "",
          "type": "address"
        },
        {
          "name": "",
          "type": "uint256"
        },
        {
          "name": "",
          "type": "uint256"
        }
      ],
      "payable": false,
      "stateMutability": "view",
      "type": "function"
    }
  ],
  "bytecode": "0x608060405234801561001057600080fd5b5061040f806100206000396000f3fe608060405234801561001057600080fd5b50600436106100365760003560e01c80632bb903861461003b578063a3b13799146100bd575b600080fd5b6100bb600480360360a081101561005157600080fd5b8101908080359060200190929190803573ffffffffffffffffffffffffffffffffffffffff169060200190929190803573ffffffffffffffffffffffffffffffffffffffff169060200190929190803590602001909291908035906020019092919050505061016c565b005b6100e9600480360360208110156100d357600080fd5b8101908080359060200190929190505050610336565b604051808573ffffffffffffffffffffffffffffffffffffffff1673ffffffffffffffffffffffffffffffffffffffff1681526020018473ffffffffffffffffffffffffffffffffffffffff1673ffffffffffffffffffffffffffffffffffffffff16815260200183815260200182815260200194505050505060405180910390f35b6040518060a001604052808681526020018573ffffffffffffffffffffffffffffffffffffffff1681526020018473ffffffffffffffffffffffffffffffffffffffff168152602001838152602001828152506000808781526020019081526020016000206000820151816000015560208201518160010160006101000a81548173ffffffffffffffffffffffffffffffffffffffff021916908373ffffffffffffffffffffffffffffffffffffffff16021790555060408201518160020160006101000a81548173ffffffffffffffffffffffffffffffffffffffff021916908373ffffffffffffffffffffffffffffffffffffffff16021790555060608201518160030155608082015181600401559050507fa855eb033bcad31cc2645fb599ca3fd94e4e0460da25cfb684511958d65af4898585858585604051808681526020018573ffffffffffffffffffffffffffffffffffffffff1673ffffffffffffffffffffffffffffffffffffffff1681526020018473ffffffffffffffffffffffffffffffffffffffff1673ffffffffffffffffffffffffffffffffffffffff1681526020018381526020018281526020019550505050505060405180910390a15050505050565b60008060008060008086815260200190815260200160002060020160009054906101000a900473ffffffffffffffffffffffffffffffffffffffff1660008087815260200190815260200160002060010160009054906101000a900473ffffffffffffffffffffffffffffffffffffffff1660008088815260200190815260200160002060030154600080898152602001908152602001600020600401549350935093509350919350919356fea165627a7a72305820c4d95cc9261a30f17229306a53c45b3a9a13733f00a57237d464ea714812f59b0029",
  "source": "pragma solidity >=0.5.1 <0.6.0;\n\nimport \"./TradeInterface.sol\";\n\ncontract TradeImpl is TradeInterface {\n    \n    event TradeCreated(bytes32 _tradeId, address _fromParty, address _toParty, uint _amount, uint _tradeDate);\n\n    \n    struct tradeStruct {\n        bytes32 tradeId;\n        address fromParty;\n        address toParty;\n        uint amount;\n        uint tradeDate;\n    }\n    \n\tmapping (bytes32 => tradeStruct) tradeList;\n\t\n    function  addTrade(bytes32 _tradeId, address _fromParty, address _toParty, uint _amount, uint _tradeDate) external {\n        tradeList[_tradeId] = tradeStruct(_tradeId,_fromParty,_toParty,_amount,_tradeDate);\n        emit TradeCreated(_tradeId,_fromParty,_toParty,_amount,_tradeDate);            \n    }\n    \n    function getTrade(bytes32 _tradeId) public view returns (address, address, uint, uint)\n    {\n        return (tradeList[_tradeId].toParty, tradeList[_tradeId].fromParty, tradeList[_tradeId].amount,tradeList[_tradeId].tradeDate);\n    }\n\n}\n\n",
  "sourcePath": "/home/paliwal_gourav/Ethereum/TradeApp/contracts/TradeImpl.sol",
  "compiler": {
    "name": "solc",
    "version": "0.5.8+commit.23d335f2.Emscripten.clang"
  },
  "schemaVersion": "3.0.11",
  "updatedAt": "2019-06-18T10:27:51.428Z",
  "devdoc": {
    "methods": {}
  },
  "userdoc": {
    "methods": {}
  }
}